{
  "_format": "hh-sol-artifact-1",
  "contractName": "KaligrafiNFT",
  "sourceName": "contracts/KaligrafiNFT.sol",
  "abi": [
    {
      "inputs": [
        {
          "internalType": "address",
          "name": "_marketplaceAddress",
          "type": "address"
        }
      ],
      "stateMutability": "nonpayable",
      "type": "constructor"
    },
    {
      "inputs": [
        {
          "internalType": "address",
          "name": "sender",
          "type": "address"
        },
        {
          "internalType": "uint256",
          "name": "tokenId",
          "type": "uint256"
        },
        {
          "internalType": "address",
          "name": "owner",
          "type": "address"
        }
      ],
      "name": "ERC721IncorrectOwner",
      "type": "error"
    },
    {
      "inputs": [
        {
          "internalType": "address",
          "name": "operator",
          "type": "address"
        },
        {
          "internalType": "uint256",
          "name": "tokenId",
          "type": "uint256"
        }
      ],
      "name": "ERC721InsufficientApproval",
      "type": "error"
    },
    {
      "inputs": [
        {
          "internalType": "address",
          "name": "approver",
          "type": "address"
        }
      ],
      "name": "ERC721InvalidApprover",
      "type": "error"
    },
    {
      "inputs": [
        {
          "internalType": "address",
          "name": "operator",
          "type": "address"
        }
      ],
      "name": "ERC721InvalidOperator",
      "type": "error"
    },
    {
      "inputs": [
        {
          "internalType": "address",
          "name": "owner",
          "type": "address"
        }
      ],
      "name": "ERC721InvalidOwner",
      "type": "error"
    },
    {
      "inputs": [
        {
          "internalType": "address",
          "name": "receiver",
          "type": "address"
        }
      ],
      "name": "ERC721InvalidReceiver",
      "type": "error"
    },
    {
      "inputs": [
        {
          "internalType": "address",
          "name": "sender",
          "type": "address"
        }
      ],
      "name": "ERC721InvalidSender",
      "type": "error"
    },
    {
      "inputs": [
        {
          "internalType": "uint256",
          "name": "tokenId",
          "type": "uint256"
        }
      ],
      "name": "ERC721NonexistentToken",
      "type": "error"
    },
    {
      "anonymous": false,
      "inputs": [
        {
          "indexed": true,
          "internalType": "address",
          "name": "owner",
          "type": "address"
        },
        {
          "indexed": true,
          "internalType": "address",
          "name": "approved",
          "type": "address"
        },
        {
          "indexed": true,
          "internalType": "uint256",
          "name": "tokenId",
          "type": "uint256"
        }
      ],
      "name": "Approval",
      "type": "event"
    },
    {
      "anonymous": false,
      "inputs": [
        {
          "indexed": true,
          "internalType": "address",
          "name": "owner",
          "type": "address"
        },
        {
          "indexed": true,
          "internalType": "address",
          "name": "operator",
          "type": "address"
        },
        {
          "indexed": false,
          "internalType": "bool",
          "name": "approved",
          "type": "bool"
        }
      ],
      "name": "ApprovalForAll",
      "type": "event"
    },
    {
      "anonymous": false,
      "inputs": [
        {
          "indexed": false,
          "internalType": "uint256",
          "name": "_fromTokenId",
          "type": "uint256"
        },
        {
          "indexed": false,
          "internalType": "uint256",
          "name": "_toTokenId",
          "type": "uint256"
        }
      ],
      "name": "BatchMetadataUpdate",
      "type": "event"
    },
    {
      "anonymous": false,
      "inputs": [
        {
          "indexed": false,
          "internalType": "uint256",
          "name": "_tokenId",
          "type": "uint256"
        }
      ],
      "name": "MetadataUpdate",
      "type": "event"
    },
    {
      "anonymous": false,
      "inputs": [
        {
          "indexed": true,
          "internalType": "uint256",
          "name": "tokenId",
          "type": "uint256"
        },
        {
          "indexed": false,
          "internalType": "address",
          "name": "from",
          "type": "address"
        },
        {
          "indexed": false,
          "internalType": "address",
          "name": "to",
          "type": "address"
        }
      ],
      "name": "OwnershipTransferred",
      "type": "event"
    },
    {
      "anonymous": false,
      "inputs": [
        {
          "indexed": true,
          "internalType": "address",
          "name": "user",
          "type": "address"
        },
        {
          "indexed": true,
          "internalType": "uint256",
          "name": "tokenId",
          "type": "uint256"
        }
      ],
      "name": "TokenFavorited",
      "type": "event"
    },
    {
      "anonymous": false,
      "inputs": [
        {
          "indexed": true,
          "internalType": "uint256",
          "name": "tokenId",
          "type": "uint256"
        },
        {
          "indexed": false,
          "internalType": "string",
          "name": "tokenURI",
          "type": "string"
        },
        {
          "indexed": false,
          "internalType": "address",
          "name": "creator",
          "type": "address"
        }
      ],
      "name": "TokenMinted",
      "type": "event"
    },
    {
      "anonymous": false,
      "inputs": [
        {
          "indexed": true,
          "internalType": "address",
          "name": "user",
          "type": "address"
        },
        {
          "indexed": true,
          "internalType": "uint256",
          "name": "tokenId",
          "type": "uint256"
        }
      ],
      "name": "TokenUnfavorited",
      "type": "event"
    },
    {
      "anonymous": false,
      "inputs": [
        {
          "indexed": true,
          "internalType": "address",
          "name": "from",
          "type": "address"
        },
        {
          "indexed": true,
          "internalType": "address",
          "name": "to",
          "type": "address"
        },
        {
          "indexed": true,
          "internalType": "uint256",
          "name": "tokenId",
          "type": "uint256"
        }
      ],
      "name": "Transfer",
      "type": "event"
    },
    {
      "anonymous": false,
      "inputs": [
        {
          "indexed": true,
          "internalType": "address",
          "name": "user",
          "type": "address"
        }
      ],
      "name": "UserProfileUpdated",
      "type": "event"
    },
    {
      "inputs": [
        {
          "internalType": "uint256",
          "name": "tokenId",
          "type": "uint256"
        }
      ],
      "name": "addFavorite",
      "outputs": [],
      "stateMutability": "nonpayable",
      "type": "function"
    },
    {
      "inputs": [
        {
          "internalType": "address",
          "name": "to",
          "type": "address"
        },
        {
          "internalType": "uint256",
          "name": "tokenId",
          "type": "uint256"
        }
      ],
      "name": "approve",
      "outputs": [],
      "stateMutability": "nonpayable",
      "type": "function"
    },
    {
      "inputs": [
        {
          "internalType": "address",
          "name": "owner",
          "type": "address"
        }
      ],
      "name": "balanceOf",
      "outputs": [
        {
          "internalType": "uint256",
          "name": "",
          "type": "uint256"
        }
      ],
      "stateMutability": "view",
      "type": "function"
    },
    {
      "inputs": [
        {
          "internalType": "uint256",
          "name": "tokenId",
          "type": "uint256"
        }
      ],
      "name": "getApproved",
      "outputs": [
        {
          "internalType": "address",
          "name": "",
          "type": "address"
        }
      ],
      "stateMutability": "view",
      "type": "function"
    },
    {
      "inputs": [],
      "name": "getFavorites",
      "outputs": [
        {
          "internalType": "uint256[]",
          "name": "",
          "type": "uint256[]"
        }
      ],
      "stateMutability": "view",
      "type": "function"
    },
    {
      "inputs": [
        {
          "internalType": "uint256",
          "name": "tokenId",
          "type": "uint256"
        }
      ],
      "name": "getOwnershipHistory",
      "outputs": [
        {
          "internalType": "address[]",
          "name": "",
          "type": "address[]"
        }
      ],
      "stateMutability": "view",
      "type": "function"
    },
    {
      "inputs": [
        {
          "internalType": "uint256",
          "name": "tokenId",
          "type": "uint256"
        }
      ],
      "name": "getTokenCreatorById",
      "outputs": [
        {
          "internalType": "address",
          "name": "",
          "type": "address"
        }
      ],
      "stateMutability": "view",
      "type": "function"
    },
    {
      "inputs": [],
      "name": "getTokensCreatedByMe",
      "outputs": [
        {
          "internalType": "uint256[]",
          "name": "",
          "type": "uint256[]"
        }
      ],
      "stateMutability": "view",
      "type": "function"
    },
    {
      "inputs": [],
      "name": "getTokensOwnedByMe",
      "outputs": [
        {
          "internalType": "uint256[]",
          "name": "",
          "type": "uint256[]"
        }
      ],
      "stateMutability": "view",
      "type": "function"
    },
    {
      "inputs": [
        {
          "internalType": "address",
          "name": "user",
          "type": "address"
        }
      ],
      "name": "getUserProfile",
      "outputs": [
        {
          "components": [
            {
              "internalType": "string",
              "name": "username",
              "type": "string"
            },
            {
              "internalType": "string",
              "name": "fullName",
              "type": "string"
            },
            {
              "internalType": "string",
              "name": "bio",
              "type": "string"
            },
            {
              "internalType": "string",
              "name": "x",
              "type": "string"
            },
            {
              "internalType": "string",
              "name": "instagram",
              "type": "string"
            },
            {
              "internalType": "string",
              "name": "avatarURL",
              "type": "string"
            }
          ],
          "internalType": "struct KaligrafiNFT.UserProfile",
          "name": "",
          "type": "tuple"
        }
      ],
      "stateMutability": "view",
      "type": "function"
    },
    {
      "inputs": [
        {
          "internalType": "address",
          "name": "owner",
          "type": "address"
        },
        {
          "internalType": "address",
          "name": "operator",
          "type": "address"
        }
      ],
      "name": "isApprovedForAll",
      "outputs": [
        {
          "internalType": "bool",
          "name": "",
          "type": "bool"
        }
      ],
      "stateMutability": "view",
      "type": "function"
    },
    {
      "inputs": [
        {
          "internalType": "uint256",
          "name": "tokenId",
          "type": "uint256"
        }
      ],
      "name": "isFavorite",
      "outputs": [
        {
          "internalType": "bool",
          "name": "",
          "type": "bool"
        }
      ],
      "stateMutability": "view",
      "type": "function"
    },
    {
      "inputs": [],
      "name": "marketplaceAddress",
      "outputs": [
        {
          "internalType": "address",
          "name": "",
          "type": "address"
        }
      ],
      "stateMutability": "view",
      "type": "function"
    },
    {
      "inputs": [
        {
          "internalType": "string",
          "name": "tokenURI",
          "type": "string"
        }
      ],
      "name": "mintToken",
      "outputs": [
        {
          "internalType": "uint256",
          "name": "",
          "type": "uint256"
        }
      ],
      "stateMutability": "nonpayable",
      "type": "function"
    },
    {
      "inputs": [],
      "name": "name",
      "outputs": [
        {
          "internalType": "string",
          "name": "",
          "type": "string"
        }
      ],
      "stateMutability": "view",
      "type": "function"
    },
    {
      "inputs": [
        {
          "internalType": "uint256",
          "name": "tokenId",
          "type": "uint256"
        }
      ],
      "name": "ownerOf",
      "outputs": [
        {
          "internalType": "address",
          "name": "",
          "type": "address"
        }
      ],
      "stateMutability": "view",
      "type": "function"
    },
    {
      "inputs": [
        {
          "internalType": "uint256",
          "name": "tokenId",
          "type": "uint256"
        },
        {
          "internalType": "address",
          "name": "to",
          "type": "address"
        }
      ],
      "name": "recordTransfer",
      "outputs": [],
      "stateMutability": "nonpayable",
      "type": "function"
    },
    {
      "inputs": [
        {
          "internalType": "uint256",
          "name": "tokenId",
          "type": "uint256"
        }
      ],
      "name": "removeFavorite",
      "outputs": [],
      "stateMutability": "nonpayable",
      "type": "function"
    },
    {
      "inputs": [
        {
          "internalType": "address",
          "name": "from",
          "type": "address"
        },
        {
          "internalType": "address",
          "name": "to",
          "type": "address"
        },
        {
          "internalType": "uint256",
          "name": "tokenId",
          "type": "uint256"
        }
      ],
      "name": "safeTransferFrom",
      "outputs": [],
      "stateMutability": "nonpayable",
      "type": "function"
    },
    {
      "inputs": [
        {
          "internalType": "address",
          "name": "from",
          "type": "address"
        },
        {
          "internalType": "address",
          "name": "to",
          "type": "address"
        },
        {
          "internalType": "uint256",
          "name": "tokenId",
          "type": "uint256"
        },
        {
          "internalType": "bytes",
          "name": "data",
          "type": "bytes"
        }
      ],
      "name": "safeTransferFrom",
      "outputs": [],
      "stateMutability": "nonpayable",
      "type": "function"
    },
    {
      "inputs": [
        {
          "internalType": "address",
          "name": "operator",
          "type": "address"
        },
        {
          "internalType": "bool",
          "name": "approved",
          "type": "bool"
        }
      ],
      "name": "setApprovalForAll",
      "outputs": [],
      "stateMutability": "nonpayable",
      "type": "function"
    },
    {
      "inputs": [
        {
          "internalType": "string",
          "name": "username",
          "type": "string"
        },
        {
          "internalType": "string",
          "name": "fullName",
          "type": "string"
        },
        {
          "internalType": "string",
          "name": "bio",
          "type": "string"
        },
        {
          "internalType": "string",
          "name": "x",
          "type": "string"
        },
        {
          "internalType": "string",
          "name": "instagram",
          "type": "string"
        },
        {
          "internalType": "string",
          "name": "avatarURL",
          "type": "string"
        }
      ],
      "name": "setUserProfile",
      "outputs": [],
      "stateMutability": "nonpayable",
      "type": "function"
    },
    {
      "inputs": [
        {
          "internalType": "bytes4",
          "name": "interfaceId",
          "type": "bytes4"
        }
      ],
      "name": "supportsInterface",
      "outputs": [
        {
          "internalType": "bool",
          "name": "",
          "type": "bool"
        }
      ],
      "stateMutability": "view",
      "type": "function"
    },
    {
      "inputs": [],
      "name": "symbol",
      "outputs": [
        {
          "internalType": "string",
          "name": "",
          "type": "string"
        }
      ],
      "stateMutability": "view",
      "type": "function"
    },
    {
      "inputs": [
        {
          "internalType": "uint256",
          "name": "tokenId",
          "type": "uint256"
        }
      ],
      "name": "tokenURI",
      "outputs": [
        {
          "internalType": "string",
          "name": "",
          "type": "string"
        }
      ],
      "stateMutability": "view",
      "type": "function"
    },
    {
      "inputs": [
        {
          "internalType": "address",
          "name": "from",
          "type": "address"
        },
        {
          "internalType": "address",
          "name": "to",
          "type": "address"
        },
        {
          "internalType": "uint256",
          "name": "tokenId",
          "type": "uint256"
        }
      ],
      "name": "transferFrom",
      "outputs": [],
      "stateMutability": "nonpayable",
      "type": "function"
    }
  ],
  "bytecode": "0x608060405234801561001057600080fd5b5060405161468e38038061468e8339818101604052810190610032919061016a565b6040518060400160405280600c81526020017f4b616c6967726166694e465400000000000000000000000000000000000000008152506040518060400160405280600981526020017f4b414c494752414649000000000000000000000000000000000000000000000081525081600090816100ad91906103e7565b5080600190816100bd91906103e7565b50505080600860006101000a81548173ffffffffffffffffffffffffffffffffffffffff021916908373ffffffffffffffffffffffffffffffffffffffff160217905550506104b9565b600080fd5b600073ffffffffffffffffffffffffffffffffffffffff82169050919050565b60006101378261010c565b9050919050565b6101478161012c565b811461015257600080fd5b50565b6000815190506101648161013e565b92915050565b6000602082840312156101805761017f610107565b5b600061018e84828501610155565b91505092915050565b600081519050919050565b7f4e487b7100000000000000000000000000000000000000000000000000000000600052604160045260246000fd5b7f4e487b7100000000000000000000000000000000000000000000000000000000600052602260045260246000fd5b6000600282049050600182168061021857607f821691505b60208210810361022b5761022a6101d1565b5b50919050565b60008190508160005260206000209050919050565b60006020601f8301049050919050565b600082821b905092915050565b6000600883026102937fffffffffffffffffffffffffffffffffffffffffffffffffffffffffffffffff82610256565b61029d8683610256565b95508019841693508086168417925050509392505050565b6000819050919050565b6000819050919050565b60006102e46102df6102da846102b5565b6102bf565b6102b5565b9050919050565b6000819050919050565b6102fe836102c9565b61031261030a826102eb565b848454610263565b825550505050565b600090565b61032761031a565b6103328184846102f5565b505050565b5b818110156103565761034b60008261031f565b600181019050610338565b5050565b601f82111561039b5761036c81610231565b61037584610246565b81016020851015610384578190505b61039861039085610246565b830182610337565b50505b505050565b600082821c905092915050565b60006103be600019846008026103a0565b1980831691505092915050565b60006103d783836103ad565b9150826002028217905092915050565b6103f082610197565b67ffffffffffffffff811115610409576104086101a2565b5b6104138254610200565b61041e82828561035a565b600060209050601f831160018114610451576000841561043f578287015190505b61044985826103cb565b8655506104b1565b601f19841661045f86610231565b60005b8281101561048757848901518255600182019150602085019450602081019050610462565b868310156104a457848901516104a0601f8916826103ad565b8355505b6001600288020188555050505b505050505050565b6141c6806104c86000396000f3fe608060405234801561001057600080fd5b506004361061018e5760003560e01c80635ba37742116100de578063987ee15611610097578063c87b56dd11610071578063c87b56dd146104a5578063daa17f49146104d5578063e985e9c5146104f3578063f1dbaccb146105235761018e565b8063987ee1561461043d578063a22cb4651461046d578063b88d4fde146104895761018e565b80635ba37742146103555780636352211e1461037357806370a08231146103a3578063845e890b146103d3578063867d3397146103ef57806395d89b411461041f5761018e565b80630fb5d9e91161014b57806333eba49a1161012557806333eba49a146102bd57806342842e0e146102ed578063497e4027146103095780634b608901146103395761018e565b80630fb5d9e91461026757806323b872dd1461028557806325ecf81e146102a15761018e565b806301ffc9a71461019357806306fdde03146101c3578063081812fc146101e1578063095ea7b3146102115780630a989d9c1461022d5780630aeb41401461024b575b600080fd5b6101ad60048036038101906101a89190612f23565b610553565b6040516101ba9190612f6b565b60405180910390f35b6101cb6105b4565b6040516101d89190613016565b60405180910390f35b6101fb60048036038101906101f6919061306e565b610646565b60405161020891906130dc565b60405180910390f35b61022b60048036038101906102269190613123565b610662565b005b610235610678565b6040516102429190613221565b60405180910390f35b6102656004803603810190610260919061306e565b610772565b005b61026f6109bf565b60405161027c9190613221565b60405180910390f35b61029f600480360381019061029a9190613243565b610a54565b005b6102bb60048036038101906102b6919061306e565b610b56565b005b6102d760048036038101906102d291906133cb565b610d81565b6040516102e49190613423565b60405180910390f35b61030760048036038101906103029190613243565b610eeb565b005b610323600480360381019061031e919061306e565b610f0b565b6040516103309190612f6b565b60405180910390f35b610353600480360381019061034e919061343e565b610f72565b005b61035d61149c565b60405161036a9190613221565b60405180910390f35b61038d6004803603810190610388919061306e565b61164c565b60405161039a91906130dc565b60405180910390f35b6103bd60048036038101906103b89190613573565b61165e565b6040516103ca9190613423565b60405180910390f35b6103ed60048036038101906103e891906135a0565b611718565b005b6104096004803603810190610404919061306e565b611862565b60405161041691906130dc565b60405180910390f35b61042761189f565b6040516104349190613016565b60405180910390f35b61045760048036038101906104529190613573565b611931565b60405161046491906136d6565b60405180910390f35b61048760048036038101906104829190613724565b611cf6565b005b6104a3600480360381019061049e9190613805565b611d0c565b005b6104bf60048036038101906104ba919061306e565b611d31565b6040516104cc9190613016565b60405180910390f35b6104dd611e44565b6040516104ea91906130dc565b60405180910390f35b61050d60048036038101906105089190613888565b611e6a565b60405161051a9190612f6b565b60405180910390f35b61053d6004803603810190610538919061306e565b611efe565b60405161054a9190613986565b60405180910390f35b6000634906490660e01b7bffffffffffffffffffffffffffffffffffffffffffffffffffffffff1916827bffffffffffffffffffffffffffffffffffffffffffffffffffffffff191614806105ad57506105ac82611f9f565b5b9050919050565b6060600080546105c3906139d7565b80601f01602080910402602001604051908101604052809291908181526020018280546105ef906139d7565b801561063c5780601f106106115761010080835404028352916020019161063c565b820191906000526020600020905b81548152906001019060200180831161061f57829003601f168201915b5050505050905090565b600061065182612081565b5061065b82612109565b9050919050565b610674828261066f612146565b61214e565b5050565b606060006007549050600061068c3361165e565b905060008167ffffffffffffffff8111156106aa576106a96132a0565b5b6040519080825280602002602001820160405280156106d85781602001602082028036833780820191505090505b509050600080600190505b848111610767573373ffffffffffffffffffffffffffffffffffffffff1661070a8261164c565b73ffffffffffffffffffffffffffffffffffffffff1603610754578083838151811061073957610738613a08565b5b602002602001018181525050818061075090613a66565b9250505b808061075f90613a66565b9150506106e3565b508194505050505090565b600c60003373ffffffffffffffffffffffffffffffffffffffff1673ffffffffffffffffffffffffffffffffffffffff168152602001908152602001600020600082815260200190815260200160002060009054906101000a900460ff1661080f576040517f08c379a000000000000000000000000000000000000000000000000000000000815260040161080690613afa565b60405180910390fd5b6000600c60003373ffffffffffffffffffffffffffffffffffffffff1673ffffffffffffffffffffffffffffffffffffffff168152602001908152602001600020600083815260200190815260200160002060006101000a81548160ff0219169083151502179055506000600d60003373ffffffffffffffffffffffffffffffffffffffff1673ffffffffffffffffffffffffffffffffffffffff168152602001908152602001600020905060005b818054905081101561097657828282815481106108de576108dd613a08565b5b9060005260206000200154036109695781600183805490506109009190613b1a565b8154811061091157610910613a08565b5b906000526020600020015482828154811061092f5761092e613a08565b5b90600052602060002001819055508180548061094e5761094d613b4e565b5b60019003818190600052602060002001600090559055610976565b80806001019150506108be565b50813373ffffffffffffffffffffffffffffffffffffffff167fc1e635e49e9f00db381de80b85a6c2cc90d9735db318e92d44c16acb6e1d4cf760405160405180910390a35050565b6060600d60003373ffffffffffffffffffffffffffffffffffffffff1673ffffffffffffffffffffffffffffffffffffffff168152602001908152602001600020805480602002602001604051908101604052809291908181526020018280548015610a4a57602002820191906000526020600020905b815481526020019060010190808311610a36575b5050505050905090565b600073ffffffffffffffffffffffffffffffffffffffff168273ffffffffffffffffffffffffffffffffffffffff1603610ac65760006040517f64a0ae92000000000000000000000000000000000000000000000000000000008152600401610abd91906130dc565b60405180910390fd5b6000610ada8383610ad5612146565b612160565b90508373ffffffffffffffffffffffffffffffffffffffff168173ffffffffffffffffffffffffffffffffffffffff1614610b50578382826040517f64283d7b000000000000000000000000000000000000000000000000000000008152600401610b4793929190613b7d565b60405180910390fd5b50505050565b600073ffffffffffffffffffffffffffffffffffffffff16610b778261237a565b73ffffffffffffffffffffffffffffffffffffffff1603610bcd576040517f08c379a0000000000000000000000000000000000000000000000000000000008152600401610bc490613c00565b60405180910390fd5b600c60003373ffffffffffffffffffffffffffffffffffffffff1673ffffffffffffffffffffffffffffffffffffffff168152602001908152602001600020600082815260200190815260200160002060009054906101000a900460ff1615610c6b576040517f08c379a0000000000000000000000000000000000000000000000000000000008152600401610c6290613c6c565b60405180910390fd5b6001600c60003373ffffffffffffffffffffffffffffffffffffffff1673ffffffffffffffffffffffffffffffffffffffff168152602001908152602001600020600083815260200190815260200160002060006101000a81548160ff021916908315150217905550600d60003373ffffffffffffffffffffffffffffffffffffffff1673ffffffffffffffffffffffffffffffffffffffff168152602001908152602001600020819080600181540180825580915050600190039060005260206000200160009091909190915055803373ffffffffffffffffffffffffffffffffffffffff167f3cd98dd0efc63ee7a8842439babd0ef153d838ee2e34e134629a8a11fa75d6fe60405160405180910390a350565b600060076000815480929190610d9690613a66565b919050555060006007549050610dac33826123b7565b610db681846124b0565b336009600083815260200190815260200160002060006101000a81548173ffffffffffffffffffffffffffffffffffffffff021916908373ffffffffffffffffffffffffffffffffffffffff160217905550600a6000828152602001908152602001600020339080600181540180825580915050600190039060005260206000200160009091909190916101000a81548173ffffffffffffffffffffffffffffffffffffffff021916908373ffffffffffffffffffffffffffffffffffffffff160217905550610ea8600860009054906101000a900473ffffffffffffffffffffffffffffffffffffffff1682610662565b807f9ef9d09a98563c827f651a028105395cc17f94ef23eb26b70d241439386a62f48433604051610eda929190613c8c565b60405180910390a280915050919050565b610f0683838360405180602001604052806000815250611d0c565b505050565b6000600c60003373ffffffffffffffffffffffffffffffffffffffff1673ffffffffffffffffffffffffffffffffffffffff168152602001908152602001600020600083815260200190815260200160002060009054906101000a900460ff169050919050565b6000600b60003373ffffffffffffffffffffffffffffffffffffffff1673ffffffffffffffffffffffffffffffffffffffff16815260200190815260200160002090506040518060c00160405280600089511161105b57826000018054610fd8906139d7565b80601f0160208091040260200160405190810160405280929190818152602001828054611004906139d7565b80156110515780601f1061102657610100808354040283529160200191611051565b820191906000526020600020905b81548152906001019060200180831161103457829003601f168201915b505050505061105d565b885b815260200160008851116110fd5782600101805461107a906139d7565b80601f01602080910402602001604051908101604052809291908181526020018280546110a6906139d7565b80156110f35780601f106110c8576101008083540402835291602001916110f3565b820191906000526020600020905b8154815290600101906020018083116110d657829003601f168201915b50505050506110ff565b875b8152602001600087511161119f5782600201805461111c906139d7565b80601f0160208091040260200160405190810160405280929190818152602001828054611148906139d7565b80156111955780601f1061116a57610100808354040283529160200191611195565b820191906000526020600020905b81548152906001019060200180831161117857829003601f168201915b50505050506111a1565b865b81526020016000865111611241578260030180546111be906139d7565b80601f01602080910402602001604051908101604052809291908181526020018280546111ea906139d7565b80156112375780601f1061120c57610100808354040283529160200191611237565b820191906000526020600020905b81548152906001019060200180831161121a57829003601f168201915b5050505050611243565b855b815260200160008551116112e357826004018054611260906139d7565b80601f016020809104026020016040519081016040528092919081815260200182805461128c906139d7565b80156112d95780601f106112ae576101008083540402835291602001916112d9565b820191906000526020600020905b8154815290600101906020018083116112bc57829003601f168201915b50505050506112e5565b845b8152602001600084511161138557826005018054611302906139d7565b80601f016020809104026020016040519081016040528092919081815260200182805461132e906139d7565b801561137b5780601f106113505761010080835404028352916020019161137b565b820191906000526020600020905b81548152906001019060200180831161135e57829003601f168201915b5050505050611387565b835b815250600b60003373ffffffffffffffffffffffffffffffffffffffff1673ffffffffffffffffffffffffffffffffffffffff16815260200190815260200160002060008201518160000190816113de9190613e68565b5060208201518160010190816113f49190613e68565b50604082015181600201908161140a9190613e68565b5060608201518160030190816114209190613e68565b5060808201518160040190816114369190613e68565b5060a082015181600501908161144c9190613e68565b509050503373ffffffffffffffffffffffffffffffffffffffff167fa7dff163671e610b2bf8ca2e049a3f29bd4e483b11bed1545b16d733ff17780b60405160405180910390a250505050505050565b606060006007549050600080600190505b82811161153c573373ffffffffffffffffffffffffffffffffffffffff166009600083815260200190815260200160002060009054906101000a900473ffffffffffffffffffffffffffffffffffffffff1673ffffffffffffffffffffffffffffffffffffffff160361152957818061152590613a66565b9250505b808061153490613a66565b9150506114ad565b5060008167ffffffffffffffff811115611559576115586132a0565b5b6040519080825280602002602001820160405280156115875781602001602082028036833780820191505090505b509050600080600190505b848111611641573373ffffffffffffffffffffffffffffffffffffffff166009600083815260200190815260200160002060009054906101000a900473ffffffffffffffffffffffffffffffffffffffff1673ffffffffffffffffffffffffffffffffffffffff160361162e578083838151811061161357611612613a08565b5b602002602001018181525050818061162a90613a66565b9250505b808061163990613a66565b915050611592565b508194505050505090565b600061165782612081565b9050919050565b60008073ffffffffffffffffffffffffffffffffffffffff168273ffffffffffffffffffffffffffffffffffffffff16036116d15760006040517f89c62b640000000000000000000000000000000000000000000000000000000081526004016116c891906130dc565b60405180910390fd5b600360008373ffffffffffffffffffffffffffffffffffffffff1673ffffffffffffffffffffffffffffffffffffffff168152602001908152602001600020549050919050565b600860009054906101000a900473ffffffffffffffffffffffffffffffffffffffff1673ffffffffffffffffffffffffffffffffffffffff163373ffffffffffffffffffffffffffffffffffffffff16146117a8576040517f08c379a000000000000000000000000000000000000000000000000000000000815260040161179f90613fac565b60405180910390fd5b600a6000838152602001908152602001600020819080600181540180825580915050600190039060005260206000200160009091909190916101000a81548173ffffffffffffffffffffffffffffffffffffffff021916908373ffffffffffffffffffffffffffffffffffffffff160217905550817f16b85f49bf01212961345d3016c9a531894accf62eb7680f2045d79185cc0ec06118478461164c565b83604051611856929190613fcc565b60405180910390a25050565b60006009600083815260200190815260200160002060009054906101000a900473ffffffffffffffffffffffffffffffffffffffff169050919050565b6060600180546118ae906139d7565b80601f01602080910402602001604051908101604052809291908181526020018280546118da906139d7565b80156119275780601f106118fc57610100808354040283529160200191611927565b820191906000526020600020905b81548152906001019060200180831161190a57829003601f168201915b5050505050905090565b611939612e81565b600b60008373ffffffffffffffffffffffffffffffffffffffff1673ffffffffffffffffffffffffffffffffffffffff1681526020019081526020016000206040518060c0016040529081600082018054611993906139d7565b80601f01602080910402602001604051908101604052809291908181526020018280546119bf906139d7565b8015611a0c5780601f106119e157610100808354040283529160200191611a0c565b820191906000526020600020905b8154815290600101906020018083116119ef57829003601f168201915b50505050508152602001600182018054611a25906139d7565b80601f0160208091040260200160405190810160405280929190818152602001828054611a51906139d7565b8015611a9e5780601f10611a7357610100808354040283529160200191611a9e565b820191906000526020600020905b815481529060010190602001808311611a8157829003601f168201915b50505050508152602001600282018054611ab7906139d7565b80601f0160208091040260200160405190810160405280929190818152602001828054611ae3906139d7565b8015611b305780601f10611b0557610100808354040283529160200191611b30565b820191906000526020600020905b815481529060010190602001808311611b1357829003601f168201915b50505050508152602001600382018054611b49906139d7565b80601f0160208091040260200160405190810160405280929190818152602001828054611b75906139d7565b8015611bc25780601f10611b9757610100808354040283529160200191611bc2565b820191906000526020600020905b815481529060010190602001808311611ba557829003601f168201915b50505050508152602001600482018054611bdb906139d7565b80601f0160208091040260200160405190810160405280929190818152602001828054611c07906139d7565b8015611c545780601f10611c2957610100808354040283529160200191611c54565b820191906000526020600020905b815481529060010190602001808311611c3757829003601f168201915b50505050508152602001600582018054611c6d906139d7565b80601f0160208091040260200160405190810160405280929190818152602001828054611c99906139d7565b8015611ce65780601f10611cbb57610100808354040283529160200191611ce6565b820191906000526020600020905b815481529060010190602001808311611cc957829003601f168201915b5050505050815250509050919050565b611d08611d01612146565b838361250c565b5050565b611d17848484610a54565b611d2b611d22612146565b8585858561267b565b50505050565b6060611d3c82612081565b506000600660008481526020019081526020016000208054611d5d906139d7565b80601f0160208091040260200160405190810160405280929190818152602001828054611d89906139d7565b8015611dd65780601f10611dab57610100808354040283529160200191611dd6565b820191906000526020600020905b815481529060010190602001808311611db957829003601f168201915b505050505090506000611de761282c565b90506000815103611dfc578192505050611e3f565b600082511115611e31578082604051602001611e19929190614031565b60405160208183030381529060405292505050611e3f565b611e3a84612843565b925050505b919050565b600860009054906101000a900473ffffffffffffffffffffffffffffffffffffffff1681565b6000600560008473ffffffffffffffffffffffffffffffffffffffff1673ffffffffffffffffffffffffffffffffffffffff16815260200190815260200160002060008373ffffffffffffffffffffffffffffffffffffffff1673ffffffffffffffffffffffffffffffffffffffff16815260200190815260200160002060009054906101000a900460ff16905092915050565b6060600a6000838152602001908152602001600020805480602002602001604051908101604052809291908181526020018280548015611f9357602002820191906000526020600020905b8160009054906101000a900473ffffffffffffffffffffffffffffffffffffffff1673ffffffffffffffffffffffffffffffffffffffff1681526020019060010190808311611f49575b50505050509050919050565b60007f80ac58cd000000000000000000000000000000000000000000000000000000007bffffffffffffffffffffffffffffffffffffffffffffffffffffffff1916827bffffffffffffffffffffffffffffffffffffffffffffffffffffffff1916148061206a57507f5b5e139f000000000000000000000000000000000000000000000000000000007bffffffffffffffffffffffffffffffffffffffffffffffffffffffff1916827bffffffffffffffffffffffffffffffffffffffffffffffffffffffff1916145b8061207a5750612079826128ac565b5b9050919050565b60008061208d8361237a565b9050600073ffffffffffffffffffffffffffffffffffffffff168173ffffffffffffffffffffffffffffffffffffffff160361210057826040517f7e2732890000000000000000000000000000000000000000000000000000000081526004016120f79190613423565b60405180910390fd5b80915050919050565b60006004600083815260200190815260200160002060009054906101000a900473ffffffffffffffffffffffffffffffffffffffff169050919050565b600033905090565b61215b8383836001612916565b505050565b60008061216c8461237a565b9050600073ffffffffffffffffffffffffffffffffffffffff168373ffffffffffffffffffffffffffffffffffffffff16146121ae576121ad818486612adb565b5b600073ffffffffffffffffffffffffffffffffffffffff168173ffffffffffffffffffffffffffffffffffffffff161461223f576121f0600085600080612916565b6001600360008373ffffffffffffffffffffffffffffffffffffffff1673ffffffffffffffffffffffffffffffffffffffff168152602001908152602001600020600082825403925050819055505b600073ffffffffffffffffffffffffffffffffffffffff168573ffffffffffffffffffffffffffffffffffffffff16146122c2576001600360008773ffffffffffffffffffffffffffffffffffffffff1673ffffffffffffffffffffffffffffffffffffffff168152602001908152602001600020600082825401925050819055505b846002600086815260200190815260200160002060006101000a81548173ffffffffffffffffffffffffffffffffffffffff021916908373ffffffffffffffffffffffffffffffffffffffff160217905550838573ffffffffffffffffffffffffffffffffffffffff168273ffffffffffffffffffffffffffffffffffffffff167fddf252ad1be2c89b69c2b068fc378daa952ba7f163c4a11628f55a4df523b3ef60405160405180910390a4809150509392505050565b60006002600083815260200190815260200160002060009054906101000a900473ffffffffffffffffffffffffffffffffffffffff169050919050565b600073ffffffffffffffffffffffffffffffffffffffff168273ffffffffffffffffffffffffffffffffffffffff16036124295760006040517f64a0ae9200000000000000000000000000000000000000000000000000000000815260040161242091906130dc565b60405180910390fd5b600061243783836000612160565b9050600073ffffffffffffffffffffffffffffffffffffffff168173ffffffffffffffffffffffffffffffffffffffff16146124ab5760006040517f73c6ac6e0000000000000000000000000000000000000000000000000000000081526004016124a291906130dc565b60405180910390fd5b505050565b806006600084815260200190815260200160002090816124d09190613e68565b507ff8e1a15aba9398e019f0b49df1a4fde98ee17ae345cb5f6b5e2c27f5033e8ce7826040516125009190613423565b60405180910390a15050565b600073ffffffffffffffffffffffffffffffffffffffff168273ffffffffffffffffffffffffffffffffffffffff160361257d57816040517f5b08ba1800000000000000000000000000000000000000000000000000000000815260040161257491906130dc565b60405180910390fd5b80600560008573ffffffffffffffffffffffffffffffffffffffff1673ffffffffffffffffffffffffffffffffffffffff16815260200190815260200160002060008473ffffffffffffffffffffffffffffffffffffffff1673ffffffffffffffffffffffffffffffffffffffff16815260200190815260200160002060006101000a81548160ff0219169083151502179055508173ffffffffffffffffffffffffffffffffffffffff168373ffffffffffffffffffffffffffffffffffffffff167f17307eab39ab6107e8899845ad3d59bd9653f200f220920489ca2b5937696c318360405161266e9190612f6b565b60405180910390a3505050565b60008373ffffffffffffffffffffffffffffffffffffffff163b1115612825578273ffffffffffffffffffffffffffffffffffffffff1663150b7a02868685856040518563ffffffff1660e01b81526004016126da94939291906140aa565b6020604051808303816000875af192505050801561271657506040513d601f19601f82011682018060405250810190612713919061410b565b60015b61279a573d8060008114612746576040519150601f19603f3d011682016040523d82523d6000602084013e61274b565b606091505b50600081510361279257836040517f64a0ae9200000000000000000000000000000000000000000000000000000000815260040161278991906130dc565b60405180910390fd5b805181602001fd5b63150b7a0260e01b7bffffffffffffffffffffffffffffffffffffffffffffffffffffffff1916817bffffffffffffffffffffffffffffffffffffffffffffffffffffffff19161461282357836040517f64a0ae9200000000000000000000000000000000000000000000000000000000815260040161281a91906130dc565b60405180910390fd5b505b5050505050565b606060405180602001604052806000815250905090565b606061284e82612081565b50600061285961282c565b9050600081511161287957604051806020016040528060008152506128a4565b8061288384612b9f565b604051602001612894929190614031565b6040516020818303038152906040525b915050919050565b60007f01ffc9a7000000000000000000000000000000000000000000000000000000007bffffffffffffffffffffffffffffffffffffffffffffffffffffffff1916827bffffffffffffffffffffffffffffffffffffffffffffffffffffffff1916149050919050565b808061294f5750600073ffffffffffffffffffffffffffffffffffffffff168273ffffffffffffffffffffffffffffffffffffffff1614155b15612a8357600061295f84612081565b9050600073ffffffffffffffffffffffffffffffffffffffff168373ffffffffffffffffffffffffffffffffffffffff16141580156129ca57508273ffffffffffffffffffffffffffffffffffffffff168173ffffffffffffffffffffffffffffffffffffffff1614155b80156129dd57506129db8184611e6a565b155b15612a1f57826040517fa9fbf51f000000000000000000000000000000000000000000000000000000008152600401612a1691906130dc565b60405180910390fd5b8115612a8157838573ffffffffffffffffffffffffffffffffffffffff168273ffffffffffffffffffffffffffffffffffffffff167f8c5be1e5ebec7d5bd14f71427d1e84f3dd0314c0f7b2291e5b200ac8c7c3b92560405160405180910390a45b505b836004600085815260200190815260200160002060006101000a81548173ffffffffffffffffffffffffffffffffffffffff021916908373ffffffffffffffffffffffffffffffffffffffff16021790555050505050565b612ae6838383612c6d565b612b9a57600073ffffffffffffffffffffffffffffffffffffffff168373ffffffffffffffffffffffffffffffffffffffff1603612b5b57806040517f7e273289000000000000000000000000000000000000000000000000000000008152600401612b529190613423565b60405180910390fd5b81816040517f177e802f000000000000000000000000000000000000000000000000000000008152600401612b91929190614138565b60405180910390fd5b505050565b606060006001612bae84612d2e565b01905060008167ffffffffffffffff811115612bcd57612bcc6132a0565b5b6040519080825280601f01601f191660200182016040528015612bff5781602001600182028036833780820191505090505b509050600082602001820190505b600115612c62578080600190039150507f3031323334353637383961626364656600000000000000000000000000000000600a86061a8153600a8581612c5657612c55614161565b5b04945060008503612c0d575b819350505050919050565b60008073ffffffffffffffffffffffffffffffffffffffff168373ffffffffffffffffffffffffffffffffffffffff1614158015612d2557508273ffffffffffffffffffffffffffffffffffffffff168473ffffffffffffffffffffffffffffffffffffffff161480612ce65750612ce58484611e6a565b5b80612d2457508273ffffffffffffffffffffffffffffffffffffffff16612d0c83612109565b73ffffffffffffffffffffffffffffffffffffffff16145b5b90509392505050565b600080600090507a184f03e93ff9f4daa797ed6e38ed64bf6a1f0100000000000000008310612d8c577a184f03e93ff9f4daa797ed6e38ed64bf6a1f0100000000000000008381612d8257612d81614161565b5b0492506040810190505b6d04ee2d6d415b85acef81000000008310612dc9576d04ee2d6d415b85acef81000000008381612dbf57612dbe614161565b5b0492506020810190505b662386f26fc100008310612df857662386f26fc100008381612dee57612ded614161565b5b0492506010810190505b6305f5e1008310612e21576305f5e1008381612e1757612e16614161565b5b0492506008810190505b6127108310612e46576127108381612e3c57612e3b614161565b5b0492506004810190505b60648310612e695760648381612e5f57612e5e614161565b5b0492506002810190505b600a8310612e78576001810190505b80915050919050565b6040518060c001604052806060815260200160608152602001606081526020016060815260200160608152602001606081525090565b6000604051905090565b600080fd5b600080fd5b60007fffffffff0000000000000000000000000000000000000000000000000000000082169050919050565b612f0081612ecb565b8114612f0b57600080fd5b50565b600081359050612f1d81612ef7565b92915050565b600060208284031215612f3957612f38612ec1565b5b6000612f4784828501612f0e565b91505092915050565b60008115159050919050565b612f6581612f50565b82525050565b6000602082019050612f806000830184612f5c565b92915050565b600081519050919050565b600082825260208201905092915050565b60005b83811015612fc0578082015181840152602081019050612fa5565b60008484015250505050565b6000601f19601f8301169050919050565b6000612fe882612f86565b612ff28185612f91565b9350613002818560208601612fa2565b61300b81612fcc565b840191505092915050565b600060208201905081810360008301526130308184612fdd565b905092915050565b6000819050919050565b61304b81613038565b811461305657600080fd5b50565b60008135905061306881613042565b92915050565b60006020828403121561308457613083612ec1565b5b600061309284828501613059565b91505092915050565b600073ffffffffffffffffffffffffffffffffffffffff82169050919050565b60006130c68261309b565b9050919050565b6130d6816130bb565b82525050565b60006020820190506130f160008301846130cd565b92915050565b613100816130bb565b811461310b57600080fd5b50565b60008135905061311d816130f7565b92915050565b6000806040838503121561313a57613139612ec1565b5b60006131488582860161310e565b925050602061315985828601613059565b9150509250929050565b600081519050919050565b600082825260208201905092915050565b6000819050602082019050919050565b61319881613038565b82525050565b60006131aa838361318f565b60208301905092915050565b6000602082019050919050565b60006131ce82613163565b6131d8818561316e565b93506131e38361317f565b8060005b838110156132145781516131fb888261319e565b9750613206836131b6565b9250506001810190506131e7565b5085935050505092915050565b6000602082019050818103600083015261323b81846131c3565b905092915050565b60008060006060848603121561325c5761325b612ec1565b5b600061326a8682870161310e565b935050602061327b8682870161310e565b925050604061328c86828701613059565b9150509250925092565b600080fd5b600080fd5b7f4e487b7100000000000000000000000000000000000000000000000000000000600052604160045260246000fd5b6132d882612fcc565b810181811067ffffffffffffffff821117156132f7576132f66132a0565b5b80604052505050565b600061330a612eb7565b905061331682826132cf565b919050565b600067ffffffffffffffff821115613336576133356132a0565b5b61333f82612fcc565b9050602081019050919050565b82818337600083830152505050565b600061336e6133698461331b565b613300565b90508281526020810184848401111561338a5761338961329b565b5b61339584828561334c565b509392505050565b600082601f8301126133b2576133b1613296565b5b81356133c284826020860161335b565b91505092915050565b6000602082840312156133e1576133e0612ec1565b5b600082013567ffffffffffffffff8111156133ff576133fe612ec6565b5b61340b8482850161339d565b91505092915050565b61341d81613038565b82525050565b60006020820190506134386000830184613414565b92915050565b60008060008060008060c0878903121561345b5761345a612ec1565b5b600087013567ffffffffffffffff81111561347957613478612ec6565b5b61348589828a0161339d565b965050602087013567ffffffffffffffff8111156134a6576134a5612ec6565b5b6134b289828a0161339d565b955050604087013567ffffffffffffffff8111156134d3576134d2612ec6565b5b6134df89828a0161339d565b945050606087013567ffffffffffffffff811115613500576134ff612ec6565b5b61350c89828a0161339d565b935050608087013567ffffffffffffffff81111561352d5761352c612ec6565b5b61353989828a0161339d565b92505060a087013567ffffffffffffffff81111561355a57613559612ec6565b5b61356689828a0161339d565b9150509295509295509295565b60006020828403121561358957613588612ec1565b5b60006135978482850161310e565b91505092915050565b600080604083850312156135b7576135b6612ec1565b5b60006135c585828601613059565b92505060206135d68582860161310e565b9150509250929050565b600082825260208201905092915050565b60006135fc82612f86565b61360681856135e0565b9350613616818560208601612fa2565b61361f81612fcc565b840191505092915050565b600060c083016000830151848203600086015261364782826135f1565b9150506020830151848203602086015261366182826135f1565b9150506040830151848203604086015261367b82826135f1565b9150506060830151848203606086015261369582826135f1565b915050608083015184820360808601526136af82826135f1565b91505060a083015184820360a08601526136c982826135f1565b9150508091505092915050565b600060208201905081810360008301526136f0818461362a565b905092915050565b61370181612f50565b811461370c57600080fd5b50565b60008135905061371e816136f8565b92915050565b6000806040838503121561373b5761373a612ec1565b5b60006137498582860161310e565b925050602061375a8582860161370f565b9150509250929050565b600067ffffffffffffffff82111561377f5761377e6132a0565b5b61378882612fcc565b9050602081019050919050565b60006137a86137a384613764565b613300565b9050828152602081018484840111156137c4576137c361329b565b5b6137cf84828561334c565b509392505050565b600082601f8301126137ec576137eb613296565b5b81356137fc848260208601613795565b91505092915050565b6000806000806080858703121561381f5761381e612ec1565b5b600061382d8782880161310e565b945050602061383e8782880161310e565b935050604061384f87828801613059565b925050606085013567ffffffffffffffff8111156138705761386f612ec6565b5b61387c878288016137d7565b91505092959194509250565b6000806040838503121561389f5761389e612ec1565b5b60006138ad8582860161310e565b92505060206138be8582860161310e565b9150509250929050565b600081519050919050565b600082825260208201905092915050565b6000819050602082019050919050565b6138fd816130bb565b82525050565b600061390f83836138f4565b60208301905092915050565b6000602082019050919050565b6000613933826138c8565b61393d81856138d3565b9350613948836138e4565b8060005b838110156139795781516139608882613903565b975061396b8361391b565b92505060018101905061394c565b5085935050505092915050565b600060208201905081810360008301526139a08184613928565b905092915050565b7f4e487b7100000000000000000000000000000000000000000000000000000000600052602260045260246000fd5b600060028204905060018216806139ef57607f821691505b602082108103613a0257613a016139a8565b5b50919050565b7f4e487b7100000000000000000000000000000000000000000000000000000000600052603260045260246000fd5b7f4e487b7100000000000000000000000000000000000000000000000000000000600052601160045260246000fd5b6000613a7182613038565b91507fffffffffffffffffffffffffffffffffffffffffffffffffffffffffffffffff8203613aa357613aa2613a37565b5b600182019050919050565b7f546f6b656e206e6f7420696e206661766f726974657300000000000000000000600082015250565b6000613ae4601683612f91565b9150613aef82613aae565b602082019050919050565b60006020820190508181036000830152613b1381613ad7565b9050919050565b6000613b2582613038565b9150613b3083613038565b9250828203905081811115613b4857613b47613a37565b5b92915050565b7f4e487b7100000000000000000000000000000000000000000000000000000000600052603160045260246000fd5b6000606082019050613b9260008301866130cd565b613b9f6020830185613414565b613bac60408301846130cd565b949350505050565b7f546f6b656e20646f6573206e6f74206578697374000000000000000000000000600082015250565b6000613bea601483612f91565b9150613bf582613bb4565b602082019050919050565b60006020820190508181036000830152613c1981613bdd565b9050919050565b7f546f6b656e20616c7265616479206661766f7269746564000000000000000000600082015250565b6000613c56601783612f91565b9150613c6182613c20565b602082019050919050565b60006020820190508181036000830152613c8581613c49565b9050919050565b60006040820190508181036000830152613ca68185612fdd565b9050613cb560208301846130cd565b9392505050565b60008190508160005260206000209050919050565b60006020601f8301049050919050565b600082821b905092915050565b600060088302613d1e7fffffffffffffffffffffffffffffffffffffffffffffffffffffffffffffffff82613ce1565b613d288683613ce1565b95508019841693508086168417925050509392505050565b6000819050919050565b6000613d65613d60613d5b84613038565b613d40565b613038565b9050919050565b6000819050919050565b613d7f83613d4a565b613d93613d8b82613d6c565b848454613cee565b825550505050565b600090565b613da8613d9b565b613db3818484613d76565b505050565b5b81811015613dd757613dcc600082613da0565b600181019050613db9565b5050565b601f821115613e1c57613ded81613cbc565b613df684613cd1565b81016020851015613e05578190505b613e19613e1185613cd1565b830182613db8565b50505b505050565b600082821c905092915050565b6000613e3f60001984600802613e21565b1980831691505092915050565b6000613e588383613e2e565b9150826002028217905092915050565b613e7182612f86565b67ffffffffffffffff811115613e8a57613e896132a0565b5b613e9482546139d7565b613e9f828285613ddb565b600060209050601f831160018114613ed25760008415613ec0578287015190505b613eca8582613e4c565b865550613f32565b601f198416613ee086613cbc565b60005b82811015613f0857848901518255600182019150602085019450602081019050613ee3565b86831015613f255784890151613f21601f891682613e2e565b8355505b6001600288020188555050505b505050505050565b7f4f6e6c79206d61726b6574706c6163652063616e207265636f7264207472616e60008201527f7366657200000000000000000000000000000000000000000000000000000000602082015250565b6000613f96602483612f91565b9150613fa182613f3a565b604082019050919050565b60006020820190508181036000830152613fc581613f89565b9050919050565b6000604082019050613fe160008301856130cd565b613fee60208301846130cd565b9392505050565b600081905092915050565b600061400b82612f86565b6140158185613ff5565b9350614025818560208601612fa2565b80840191505092915050565b600061403d8285614000565b91506140498284614000565b91508190509392505050565b600081519050919050565b600082825260208201905092915050565b600061407c82614055565b6140868185614060565b9350614096818560208601612fa2565b61409f81612fcc565b840191505092915050565b60006080820190506140bf60008301876130cd565b6140cc60208301866130cd565b6140d96040830185613414565b81810360608301526140eb8184614071565b905095945050505050565b60008151905061410581612ef7565b92915050565b60006020828403121561412157614120612ec1565b5b600061412f848285016140f6565b91505092915050565b600060408201905061414d60008301856130cd565b61415a6020830184613414565b9392505050565b7f4e487b7100000000000000000000000000000000000000000000000000000000600052601260045260246000fdfea2646970667358221220448b41f8599bf41cece4c9ddd6334895139e278b812917b4732491026119861664736f6c634300081c0033",
  "linkReferences": {},
  "deployedLinkReferences": {}
}