{
  "_format": "hh-sol-artifact-1",
  "contractName": "Marketplace",
  "sourceName": "contracts/Marketplace.sol",
  "abi": [
    {
      "inputs": [],
      "stateMutability": "nonpayable",
      "type": "constructor"
    },
    {
      "inputs": [],
      "name": "IncorrectPriceSent",
      "type": "error"
    },
    {
      "inputs": [],
      "name": "ItemAlreadyCanceled",
      "type": "error"
    },
    {
      "inputs": [],
      "name": "ItemAlreadySold",
      "type": "error"
    },
    {
      "inputs": [],
      "name": "ItemCanceled",
      "type": "error"
    },
    {
      "inputs": [],
      "name": "MarketItemDoesNotExist",
      "type": "error"
    },
    {
      "inputs": [],
      "name": "NotSeller",
      "type": "error"
    },
    {
      "inputs": [],
      "name": "PriceMustBeGreaterThanZero",
      "type": "error"
    },
    {
      "inputs": [],
      "name": "ReentrancyGuardReentrantCall",
      "type": "error"
    },
    {
      "anonymous": false,
      "inputs": [
        {
          "indexed": true,
          "internalType": "uint256",
          "name": "marketItemId",
          "type": "uint256"
        },
        {
          "indexed": true,
          "internalType": "address",
          "name": "nftContract",
          "type": "address"
        },
        {
          "indexed": true,
          "internalType": "uint256",
          "name": "tokenId",
          "type": "uint256"
        },
        {
          "indexed": false,
          "internalType": "address",
          "name": "creator",
          "type": "address"
        },
        {
          "indexed": false,
          "internalType": "address",
          "name": "seller",
          "type": "address"
        },
        {
          "indexed": false,
          "internalType": "address",
          "name": "owner",
          "type": "address"
        },
        {
          "indexed": false,
          "internalType": "uint256",
          "name": "price",
          "type": "uint256"
        },
        {
          "indexed": false,
          "internalType": "bool",
          "name": "sold",
          "type": "bool"
        },
        {
          "indexed": false,
          "internalType": "bool",
          "name": "canceled",
          "type": "bool"
        }
      ],
      "name": "MarketItemCreated",
      "type": "event"
    },
    {
      "inputs": [
        {
          "internalType": "address",
          "name": "nftContractAddress",
          "type": "address"
        },
        {
          "internalType": "uint256",
          "name": "marketItemId",
          "type": "uint256"
        }
      ],
      "name": "cancelMarketItem",
      "outputs": [],
      "stateMutability": "nonpayable",
      "type": "function"
    },
    {
      "inputs": [
        {
          "internalType": "address",
          "name": "nftContractAddress",
          "type": "address"
        },
        {
          "internalType": "uint256",
          "name": "tokenId",
          "type": "uint256"
        },
        {
          "internalType": "uint256",
          "name": "price",
          "type": "uint256"
        }
      ],
      "name": "createMarketItem",
      "outputs": [
        {
          "internalType": "uint256",
          "name": "",
          "type": "uint256"
        }
      ],
      "stateMutability": "nonpayable",
      "type": "function"
    },
    {
      "inputs": [
        {
          "internalType": "address",
          "name": "nftContractAddress",
          "type": "address"
        },
        {
          "internalType": "uint256",
          "name": "marketItemId",
          "type": "uint256"
        }
      ],
      "name": "createMarketSale",
      "outputs": [],
      "stateMutability": "payable",
      "type": "function"
    },
    {
      "inputs": [],
      "name": "fetchAvailableMarketItems",
      "outputs": [
        {
          "components": [
            {
              "internalType": "uint256",
              "name": "marketItemId",
              "type": "uint256"
            },
            {
              "internalType": "address",
              "name": "nftContractAddress",
              "type": "address"
            },
            {
              "internalType": "uint256",
              "name": "tokenId",
              "type": "uint256"
            },
            {
              "internalType": "address payable",
              "name": "creator",
              "type": "address"
            },
            {
              "internalType": "address payable",
              "name": "seller",
              "type": "address"
            },
            {
              "internalType": "address payable",
              "name": "owner",
              "type": "address"
            },
            {
              "internalType": "uint256",
              "name": "price",
              "type": "uint256"
            },
            {
              "internalType": "bool",
              "name": "sold",
              "type": "bool"
            },
            {
              "internalType": "bool",
              "name": "canceled",
              "type": "bool"
            }
          ],
          "internalType": "struct Marketplace.MarketItem[]",
          "name": "",
          "type": "tuple[]"
        }
      ],
      "stateMutability": "view",
      "type": "function"
    },
    {
      "inputs": [],
      "name": "getListingFee",
      "outputs": [
        {
          "internalType": "uint256",
          "name": "",
          "type": "uint256"
        }
      ],
      "stateMutability": "view",
      "type": "function"
    },
    {
      "inputs": [
        {
          "internalType": "uint256",
          "name": "marketItemId",
          "type": "uint256"
        }
      ],
      "name": "getMarketItemById",
      "outputs": [
        {
          "components": [
            {
              "internalType": "uint256",
              "name": "marketItemId",
              "type": "uint256"
            },
            {
              "internalType": "address",
              "name": "nftContractAddress",
              "type": "address"
            },
            {
              "internalType": "uint256",
              "name": "tokenId",
              "type": "uint256"
            },
            {
              "internalType": "address payable",
              "name": "creator",
              "type": "address"
            },
            {
              "internalType": "address payable",
              "name": "seller",
              "type": "address"
            },
            {
              "internalType": "address payable",
              "name": "owner",
              "type": "address"
            },
            {
              "internalType": "uint256",
              "name": "price",
              "type": "uint256"
            },
            {
              "internalType": "bool",
              "name": "sold",
              "type": "bool"
            },
            {
              "internalType": "bool",
              "name": "canceled",
              "type": "bool"
            }
          ],
          "internalType": "struct Marketplace.MarketItem",
          "name": "",
          "type": "tuple"
        }
      ],
      "stateMutability": "view",
      "type": "function"
    },
    {
      "inputs": [
        {
          "internalType": "uint256",
          "name": "tokenId",
          "type": "uint256"
        }
      ],
      "name": "getMarketItemByTokenId",
      "outputs": [
        {
          "components": [
            {
              "internalType": "uint256",
              "name": "marketItemId",
              "type": "uint256"
            },
            {
              "internalType": "address",
              "name": "nftContractAddress",
              "type": "address"
            },
            {
              "internalType": "uint256",
              "name": "tokenId",
              "type": "uint256"
            },
            {
              "internalType": "address payable",
              "name": "creator",
              "type": "address"
            },
            {
              "internalType": "address payable",
              "name": "seller",
              "type": "address"
            },
            {
              "internalType": "address payable",
              "name": "owner",
              "type": "address"
            },
            {
              "internalType": "uint256",
              "name": "price",
              "type": "uint256"
            },
            {
              "internalType": "bool",
              "name": "sold",
              "type": "bool"
            },
            {
              "internalType": "bool",
              "name": "canceled",
              "type": "bool"
            }
          ],
          "internalType": "struct Marketplace.MarketItem",
          "name": "",
          "type": "tuple"
        }
      ],
      "stateMutability": "view",
      "type": "function"
    },
    {
      "inputs": [],
      "name": "getOwner",
      "outputs": [
        {
          "internalType": "address",
          "name": "",
          "type": "address"
        }
      ],
      "stateMutability": "view",
      "type": "function"
    },
    {
      "inputs": [
        {
          "internalType": "address",
          "name": "user",
          "type": "address"
        }
      ],
      "name": "getUserStatistics",
      "outputs": [
        {
          "internalType": "uint256",
          "name": "sales",
          "type": "uint256"
        },
        {
          "internalType": "uint256",
          "name": "revenue",
          "type": "uint256"
        },
        {
          "internalType": "uint256",
          "name": "royaltyEarned",
          "type": "uint256"
        }
      ],
      "stateMutability": "view",
      "type": "function"
    },
    {
      "inputs": [
        {
          "internalType": "address",
          "name": "nftContractAddress",
          "type": "address"
        },
        {
          "internalType": "uint256",
          "name": "marketItemId",
          "type": "uint256"
        },
        {
          "internalType": "uint256",
          "name": "price",
          "type": "uint256"
        }
      ],
      "name": "relistMarketItem",
      "outputs": [],
      "stateMutability": "nonpayable",
      "type": "function"
    },
    {
      "inputs": [
        {
          "internalType": "address",
          "name": "",
          "type": "address"
        }
      ],
      "name": "totalRevenue",
      "outputs": [
        {
          "internalType": "uint256",
          "name": "",
          "type": "uint256"
        }
      ],
      "stateMutability": "view",
      "type": "function"
    },
    {
      "inputs": [
        {
          "internalType": "address",
          "name": "",
          "type": "address"
        }
      ],
      "name": "totalRoyaltyEarned",
      "outputs": [
        {
          "internalType": "uint256",
          "name": "",
          "type": "uint256"
        }
      ],
      "stateMutability": "view",
      "type": "function"
    },
    {
      "inputs": [
        {
          "internalType": "address",
          "name": "",
          "type": "address"
        }
      ],
      "name": "totalSales",
      "outputs": [
        {
          "internalType": "uint256",
          "name": "",
          "type": "uint256"
        }
      ],
      "stateMutability": "view",
      "type": "function"
    }
  ],
  "bytecode": "0x6080604052669fdf42f6e48000600555348015601a57600080fd5b50600160008190555033600460006101000a81548173ffffffffffffffffffffffffffffffffffffffff021916908373ffffffffffffffffffffffffffffffffffffffff160217905550612877806100736000396000f3fe6080604052600436106100c25760003560e01c80639abf42171161007f578063b3e5b2b411610059578063b3e5b2b4146102b6578063b8fe6abe146102df578063bdaa1c1c1461030a578063c23b139e14610347576100c2565b80639abf421714610211578063a83583e91461024e578063b3e3c42f1461028d576100c2565b80630e01c969146100c75780632e4c7e88146100f25780634218f1841461012f57806353dbceb11461016c57806358eb2df5146101a9578063893d20e8146101e6575b600080fd5b3480156100d357600080fd5b506100dc610363565b6040516100e991906120f2565b60405180910390f35b3480156100fe57600080fd5b5061011960048036038101906101149190612145565b610825565b6040516101269190612181565b60405180910390f35b34801561013b57600080fd5b5061015660048036038101906101519190612145565b61083d565b6040516101639190612181565b60405180910390f35b34801561017857600080fd5b50610193600480360381019061018e91906121c8565b610855565b6040516101a091906122ac565b60405180910390f35b3480156101b557600080fd5b506101d060048036038101906101cb91906122c8565b610a73565b6040516101dd9190612181565b60405180910390f35b3480156101f257600080fd5b506101fb610f50565b604051610208919061232a565b60405180910390f35b34801561021d57600080fd5b50610238600480360381019061023391906121c8565b610f7a565b60405161024591906122ac565b60405180910390f35b34801561025a57600080fd5b5061027560048036038101906102709190612145565b6111d1565b60405161028493929190612345565b60405180910390f35b34801561029957600080fd5b506102b460048036038101906102af919061237c565b6112a3565b005b3480156102c257600080fd5b506102dd60048036038101906102d891906122c8565b611513565b005b3480156102eb57600080fd5b506102f461186e565b6040516103019190612181565b60405180910390f35b34801561031657600080fd5b50610331600480360381019061032c9190612145565b611878565b60405161033e9190612181565b60405180910390f35b610361600480360381019061035c919061237c565b611890565b005b606060006001549050600080600190505b8281116105875760006006600083815260200190815260200160002060405180610120016040529081600082015481526020016001820160009054906101000a900473ffffffffffffffffffffffffffffffffffffffff1673ffffffffffffffffffffffffffffffffffffffff1673ffffffffffffffffffffffffffffffffffffffff168152602001600282015481526020016003820160009054906101000a900473ffffffffffffffffffffffffffffffffffffffff1673ffffffffffffffffffffffffffffffffffffffff1673ffffffffffffffffffffffffffffffffffffffff1681526020016004820160009054906101000a900473ffffffffffffffffffffffffffffffffffffffff1673ffffffffffffffffffffffffffffffffffffffff1673ffffffffffffffffffffffffffffffffffffffff1681526020016005820160009054906101000a900473ffffffffffffffffffffffffffffffffffffffff1673ffffffffffffffffffffffffffffffffffffffff1673ffffffffffffffffffffffffffffffffffffffff168152602001600682015481526020016007820160009054906101000a900460ff161515151581526020016007820160019054906101000a900460ff16151515158152505090508060e0015115801561055f5750806101000151155b1561057357828061056f906123eb565b9350505b50808061057f906123eb565b915050610374565b5060008167ffffffffffffffff8111156105a4576105a3612433565b5b6040519080825280602002602001820160405280156105dd57816020015b6105ca611e4d565b8152602001906001900390816105c25790505b509050600080600190505b84811161081a5760006006600083815260200190815260200160002060405180610120016040529081600082015481526020016001820160009054906101000a900473ffffffffffffffffffffffffffffffffffffffff1673ffffffffffffffffffffffffffffffffffffffff1673ffffffffffffffffffffffffffffffffffffffff168152602001600282015481526020016003820160009054906101000a900473ffffffffffffffffffffffffffffffffffffffff1673ffffffffffffffffffffffffffffffffffffffff1673ffffffffffffffffffffffffffffffffffffffff1681526020016004820160009054906101000a900473ffffffffffffffffffffffffffffffffffffffff1673ffffffffffffffffffffffffffffffffffffffff1673ffffffffffffffffffffffffffffffffffffffff1681526020016005820160009054906101000a900473ffffffffffffffffffffffffffffffffffffffff1673ffffffffffffffffffffffffffffffffffffffff1673ffffffffffffffffffffffffffffffffffffffff168152602001600682015481526020016007820160009054906101000a900460ff161515151581526020016007820160019054906101000a900460ff16151515158152505090508060e001511580156107d35750806101000151155b1561080657808484815181106107ec576107eb612462565b5b60200260200101819052508280610802906123eb565b9350505b508080610812906123eb565b9150506105e8565b508194505050505090565b60076020528060005260406000206000915090505481565b60086020528060005260406000206000915090505481565b61085d611e4d565b60006006600084815260200190815260200160002060405180610120016040529081600082015481526020016001820160009054906101000a900473ffffffffffffffffffffffffffffffffffffffff1673ffffffffffffffffffffffffffffffffffffffff1673ffffffffffffffffffffffffffffffffffffffff168152602001600282015481526020016003820160009054906101000a900473ffffffffffffffffffffffffffffffffffffffff1673ffffffffffffffffffffffffffffffffffffffff1673ffffffffffffffffffffffffffffffffffffffff1681526020016004820160009054906101000a900473ffffffffffffffffffffffffffffffffffffffff1673ffffffffffffffffffffffffffffffffffffffff1673ffffffffffffffffffffffffffffffffffffffff1681526020016005820160009054906101000a900473ffffffffffffffffffffffffffffffffffffffff1673ffffffffffffffffffffffffffffffffffffffff1673ffffffffffffffffffffffffffffffffffffffff168152602001600682015481526020016007820160009054906101000a900460ff161515151581526020016007820160019054906101000a900460ff16151515158152505090506000816040015103610a6a576040517f525c9eb800000000000000000000000000000000000000000000000000000000815260040160405180910390fd5b80915050919050565b6000610a7d611dfd565b60008203610ab7576040517f23a3620900000000000000000000000000000000000000000000000000000000815260040160405180910390fd5b60008473ffffffffffffffffffffffffffffffffffffffff16636352211e856040518263ffffffff1660e01b8152600401610af29190612181565b602060405180830381865afa158015610b0f573d6000803e3d6000fd5b505050506040513d601f19601f82011682018060405250810190610b3391906124a6565b90503373ffffffffffffffffffffffffffffffffffffffff168173ffffffffffffffffffffffffffffffffffffffff1614610ba3576040517f08c379a0000000000000000000000000000000000000000000000000000000008152600401610b9a90612556565b60405180910390fd5b60016000815480929190610bb6906123eb565b91905055506000600154905060008673ffffffffffffffffffffffffffffffffffffffff1663867d3397876040518263ffffffff1660e01b8152600401610bfd9190612181565b602060405180830381865afa158015610c1a573d6000803e3d6000fd5b505050506040513d601f19601f82011682018060405250810190610c3e91906124a6565b90506040518061012001604052808381526020018873ffffffffffffffffffffffffffffffffffffffff1681526020018781526020018273ffffffffffffffffffffffffffffffffffffffff1681526020013373ffffffffffffffffffffffffffffffffffffffff168152602001600073ffffffffffffffffffffffffffffffffffffffff16815260200186815260200160001515815260200160001515815250600660008481526020019081526020016000206000820151816000015560208201518160010160006101000a81548173ffffffffffffffffffffffffffffffffffffffff021916908373ffffffffffffffffffffffffffffffffffffffff1602179055506040820151816002015560608201518160030160006101000a81548173ffffffffffffffffffffffffffffffffffffffff021916908373ffffffffffffffffffffffffffffffffffffffff16021790555060808201518160040160006101000a81548173ffffffffffffffffffffffffffffffffffffffff021916908373ffffffffffffffffffffffffffffffffffffffff16021790555060a08201518160050160006101000a81548173ffffffffffffffffffffffffffffffffffffffff021916908373ffffffffffffffffffffffffffffffffffffffff16021790555060c0820151816006015560e08201518160070160006101000a81548160ff0219169083151502179055506101008201518160070160016101000a81548160ff0219169083151502179055509050508673ffffffffffffffffffffffffffffffffffffffff166323b872dd3330896040518463ffffffff1660e01b8152600401610ead93929190612576565b600060405180830381600087803b158015610ec757600080fd5b505af1158015610edb573d6000803e3d6000fd5b50505050858773ffffffffffffffffffffffffffffffffffffffff16837fa3b15201f5409f14cce6233dc60972278c313ff3ddbdee57ff092c0e95313526843360008b600080604051610f339695949392919061261b565b60405180910390a4819350505050610f49611e43565b9392505050565b6000600460009054906101000a900473ffffffffffffffffffffffffffffffffffffffff16905090565b610f82611e4d565b6000600190505b60015481116111995760006006600083815260200190815260200160002060405180610120016040529081600082015481526020016001820160009054906101000a900473ffffffffffffffffffffffffffffffffffffffff1673ffffffffffffffffffffffffffffffffffffffff1673ffffffffffffffffffffffffffffffffffffffff168152602001600282015481526020016003820160009054906101000a900473ffffffffffffffffffffffffffffffffffffffff1673ffffffffffffffffffffffffffffffffffffffff1673ffffffffffffffffffffffffffffffffffffffff1681526020016004820160009054906101000a900473ffffffffffffffffffffffffffffffffffffffff1673ffffffffffffffffffffffffffffffffffffffff1673ffffffffffffffffffffffffffffffffffffffff1681526020016005820160009054906101000a900473ffffffffffffffffffffffffffffffffffffffff1673ffffffffffffffffffffffffffffffffffffffff1673ffffffffffffffffffffffffffffffffffffffff168152602001600682015481526020016007820160009054906101000a900460ff161515151581526020016007820160019054906101000a900460ff161515151581525050905083816040015114801561117657508060e00151155b156111855780925050506111cc565b508080611191906123eb565b915050610f89565b506040517f525c9eb800000000000000000000000000000000000000000000000000000000815260040160405180910390fd5b919050565b6000806000600760008573ffffffffffffffffffffffffffffffffffffffff1673ffffffffffffffffffffffffffffffffffffffff168152602001908152602001600020549250600860008573ffffffffffffffffffffffffffffffffffffffff1673ffffffffffffffffffffffffffffffffffffffff168152602001908152602001600020549150600960008573ffffffffffffffffffffffffffffffffffffffff1673ffffffffffffffffffffffffffffffffffffffff1681526020019081526020016000205490509193909250565b6112ab611dfd565b60006006600083815260200190815260200160002090506000816002015403611300576040517f525c9eb800000000000000000000000000000000000000000000000000000000815260040160405180910390fd5b8060070160009054906101000a900460ff1615611349576040517f898c8e6700000000000000000000000000000000000000000000000000000000815260040160405180910390fd5b8060070160019054906101000a900460ff1615611392576040517f71e20a2b00000000000000000000000000000000000000000000000000000000815260040160405180910390fd5b3373ffffffffffffffffffffffffffffffffffffffff168160040160009054906101000a900473ffffffffffffffffffffffffffffffffffffffff1673ffffffffffffffffffffffffffffffffffffffff161461141b576040517f5ec8235100000000000000000000000000000000000000000000000000000000815260040160405180910390fd5b8273ffffffffffffffffffffffffffffffffffffffff166323b872dd303384600201546040518463ffffffff1660e01b815260040161145c93929190612576565b600060405180830381600087803b15801561147657600080fd5b505af115801561148a573d6000803e3d6000fd5b50505050338160050160006101000a81548173ffffffffffffffffffffffffffffffffffffffff021916908373ffffffffffffffffffffffffffffffffffffffff16021790555060018160070160016101000a81548160ff02191690831515021790555060036000815480929190611501906123eb565b91905055505061150f611e43565b5050565b61151b611dfd565b60006006600084815260200190815260200160002090506000816002015403611570576040517f525c9eb800000000000000000000000000000000000000000000000000000000815260040160405180910390fd5b8060070160019054906101000a900460ff166115b8576040517f898c8e6700000000000000000000000000000000000000000000000000000000815260040160405180910390fd5b3373ffffffffffffffffffffffffffffffffffffffff168160040160009054906101000a900473ffffffffffffffffffffffffffffffffffffffff1673ffffffffffffffffffffffffffffffffffffffff1614611641576040517f5ec8235100000000000000000000000000000000000000000000000000000000815260040160405180910390fd5b6000820361167b576040517f23a3620900000000000000000000000000000000000000000000000000000000815260040160405180910390fd5b3073ffffffffffffffffffffffffffffffffffffffff168473ffffffffffffffffffffffffffffffffffffffff1663081812fc83600201546040518263ffffffff1660e01b81526004016116cf9190612181565b602060405180830381865afa1580156116ec573d6000803e3d6000fd5b505050506040513d601f19601f8201168201806040525081019061171091906124a6565b73ffffffffffffffffffffffffffffffffffffffff1614611766576040517f08c379a000000000000000000000000000000000000000000000000000000000815260040161175d906126ee565b60405180910390fd5b81816006018190555060008160070160006101000a81548160ff02191690831515021790555060008160070160016101000a81548160ff02191690831515021790555060008160050160006101000a81548173ffffffffffffffffffffffffffffffffffffffff021916908373ffffffffffffffffffffffffffffffffffffffff1602179055508373ffffffffffffffffffffffffffffffffffffffff166323b872dd333084600201546040518463ffffffff1660e01b815260040161182e93929190612576565b600060405180830381600087803b15801561184857600080fd5b505af115801561185c573d6000803e3d6000fd5b5050505050611869611e43565b505050565b6000600554905090565b60096020528060005260406000206000915090505481565b611898611dfd565b60006006600083815260200190815260200160002090508060070160009054906101000a900460ff16156118f8576040517f898c8e6700000000000000000000000000000000000000000000000000000000815260040160405180910390fd5b8060070160019054906101000a900460ff1615611941576040517f0bca8a7500000000000000000000000000000000000000000000000000000000815260040160405180910390fd5b60008160060154905060008260020154905081341461198c576040517f7ec93e8400000000000000000000000000000000000000000000000000000000815260040160405180910390fd5b338360050160006101000a81548173ffffffffffffffffffffffffffffffffffffffff021916908373ffffffffffffffffffffffffffffffffffffffff16021790555060018360070160006101000a81548160ff0219169083151502179055506000670de0b6b3a764000060055484611a05919061270e565b611a0f919061277f565b905060006064600285611a22919061270e565b611a2c919061277f565b90506000818386611a3d91906127b0565b611a4791906127b0565b90508560040160009054906101000a900473ffffffffffffffffffffffffffffffffffffffff1673ffffffffffffffffffffffffffffffffffffffff166108fc829081150290604051600060405180830381858888f19350505050158015611ab3573d6000803e3d6000fd5b508560030160009054906101000a900473ffffffffffffffffffffffffffffffffffffffff1673ffffffffffffffffffffffffffffffffffffffff166108fc839081150290604051600060405180830381858888f19350505050158015611b1e573d6000803e3d6000fd5b50600460009054906101000a900473ffffffffffffffffffffffffffffffffffffffff1673ffffffffffffffffffffffffffffffffffffffff166108fc849081150290604051600060405180830381858888f19350505050158015611b87573d6000803e3d6000fd5b508773ffffffffffffffffffffffffffffffffffffffff166323b872dd3033876040518463ffffffff1660e01b8152600401611bc593929190612576565b600060405180830381600087803b158015611bdf57600080fd5b505af1158015611bf3573d6000803e3d6000fd5b505050508773ffffffffffffffffffffffffffffffffffffffff1663845e890b85336040518363ffffffff1660e01b8152600401611c329291906127e4565b600060405180830381600087803b158015611c4c57600080fd5b505af1158015611c60573d6000803e3d6000fd5b505050506001600760008860040160009054906101000a900473ffffffffffffffffffffffffffffffffffffffff1673ffffffffffffffffffffffffffffffffffffffff1673ffffffffffffffffffffffffffffffffffffffff1681526020019081526020016000206000828254611cd8919061280d565b9250508190555080600860008860040160009054906101000a900473ffffffffffffffffffffffffffffffffffffffff1673ffffffffffffffffffffffffffffffffffffffff1673ffffffffffffffffffffffffffffffffffffffff1681526020019081526020016000206000828254611d52919061280d565b9250508190555081600960008860030160009054906101000a900473ffffffffffffffffffffffffffffffffffffffff1673ffffffffffffffffffffffffffffffffffffffff1673ffffffffffffffffffffffffffffffffffffffff1681526020019081526020016000206000828254611dcc919061280d565b9250508190555060026000815480929190611de6906123eb565b9190505550505050505050611df9611e43565b5050565b600260005403611e39576040517f3ee5aeb500000000000000000000000000000000000000000000000000000000815260040160405180910390fd5b6002600081905550565b6001600081905550565b60405180610120016040528060008152602001600073ffffffffffffffffffffffffffffffffffffffff16815260200160008152602001600073ffffffffffffffffffffffffffffffffffffffff168152602001600073ffffffffffffffffffffffffffffffffffffffff168152602001600073ffffffffffffffffffffffffffffffffffffffff168152602001600081526020016000151581526020016000151581525090565b600081519050919050565b600082825260208201905092915050565b6000819050602082019050919050565b6000819050919050565b611f3481611f21565b82525050565b600073ffffffffffffffffffffffffffffffffffffffff82169050919050565b6000611f6582611f3a565b9050919050565b611f7581611f5a565b82525050565b6000611f8682611f3a565b9050919050565b611f9681611f7b565b82525050565b60008115159050919050565b611fb181611f9c565b82525050565b61012082016000820151611fce6000850182611f2b565b506020820151611fe16020850182611f6c565b506040820151611ff46040850182611f2b565b5060608201516120076060850182611f8d565b50608082015161201a6080850182611f8d565b5060a082015161202d60a0850182611f8d565b5060c082015161204060c0850182611f2b565b5060e082015161205360e0850182611fa8565b50610100820151612068610100850182611fa8565b50505050565b600061207a8383611fb7565b6101208301905092915050565b6000602082019050919050565b600061209f82611ef5565b6120a98185611f00565b93506120b483611f11565b8060005b838110156120e55781516120cc888261206e565b97506120d783612087565b9250506001810190506120b8565b5085935050505092915050565b6000602082019050818103600083015261210c8184612094565b905092915050565b600080fd5b61212281611f5a565b811461212d57600080fd5b50565b60008135905061213f81612119565b92915050565b60006020828403121561215b5761215a612114565b5b600061216984828501612130565b91505092915050565b61217b81611f21565b82525050565b60006020820190506121966000830184612172565b92915050565b6121a581611f21565b81146121b057600080fd5b50565b6000813590506121c28161219c565b92915050565b6000602082840312156121de576121dd612114565b5b60006121ec848285016121b3565b91505092915050565b6101208201600082015161220c6000850182611f2b565b50602082015161221f6020850182611f6c565b5060408201516122326040850182611f2b565b5060608201516122456060850182611f8d565b5060808201516122586080850182611f8d565b5060a082015161226b60a0850182611f8d565b5060c082015161227e60c0850182611f2b565b5060e082015161229160e0850182611fa8565b506101008201516122a6610100850182611fa8565b50505050565b6000610120820190506122c260008301846121f5565b92915050565b6000806000606084860312156122e1576122e0612114565b5b60006122ef86828701612130565b9350506020612300868287016121b3565b9250506040612311868287016121b3565b9150509250925092565b61232481611f5a565b82525050565b600060208201905061233f600083018461231b565b92915050565b600060608201905061235a6000830186612172565b6123676020830185612172565b6123746040830184612172565b949350505050565b6000806040838503121561239357612392612114565b5b60006123a185828601612130565b92505060206123b2858286016121b3565b9150509250929050565b7f4e487b7100000000000000000000000000000000000000000000000000000000600052601160045260246000fd5b60006123f682611f21565b91507fffffffffffffffffffffffffffffffffffffffffffffffffffffffffffffffff8203612428576124276123bc565b5b600182019050919050565b7f4e487b7100000000000000000000000000000000000000000000000000000000600052604160045260246000fd5b7f4e487b7100000000000000000000000000000000000000000000000000000000600052603260045260246000fd5b6000815190506124a081612119565b92915050565b6000602082840312156124bc576124bb612114565b5b60006124ca84828501612491565b91505092915050565b600082825260208201905092915050565b7f43616c6c6572206973206e6f7420746865206f776e6572206f6620746865204e60008201527f4654000000000000000000000000000000000000000000000000000000000000602082015250565b60006125406022836124d3565b915061254b826124e4565b604082019050919050565b6000602082019050818103600083015261256f81612533565b9050919050565b600060608201905061258b600083018661231b565b612598602083018561231b565b6125a56040830184612172565b949350505050565b6000819050919050565b60006125d26125cd6125c884611f3a565b6125ad565b611f3a565b9050919050565b60006125e4826125b7565b9050919050565b60006125f6826125d9565b9050919050565b612606816125eb565b82525050565b61261581611f9c565b82525050565b600060c08201905061263060008301896125fd565b61263d60208301886125fd565b61264a60408301876125fd565b6126576060830186612172565b612664608083018561260c565b61267160a083018461260c565b979650505050505050565b7f4d61726b6574706c616365206973206e6f7420617070726f76656420746f207460008201527f72616e736665722074686973204e465400000000000000000000000000000000602082015250565b60006126d86030836124d3565b91506126e38261267c565b604082019050919050565b60006020820190508181036000830152612707816126cb565b9050919050565b600061271982611f21565b915061272483611f21565b925082820261273281611f21565b91508282048414831517612749576127486123bc565b5b5092915050565b7f4e487b7100000000000000000000000000000000000000000000000000000000600052601260045260246000fd5b600061278a82611f21565b915061279583611f21565b9250826127a5576127a4612750565b5b828204905092915050565b60006127bb82611f21565b91506127c683611f21565b92508282039050818111156127de576127dd6123bc565b5b92915050565b60006040820190506127f96000830185612172565b612806602083018461231b565b9392505050565b600061281882611f21565b915061282383611f21565b925082820190508082111561283b5761283a6123bc565b5b9291505056fea2646970667358221220d802959391fe858bd3ce138bc9d4148d1004123f96d2205d7882994ef5f266fe64736f6c634300081c0033",
  "linkReferences": {},
  "deployedLinkReferences": {}
}